:1000000002148B12200C121C34223202128F900028
:0A00100000E0FFEF75F00384FF220B
:0E001B00020058902034E493FE740193FF22FB
:0E002B00021341902038E493FE740193FF22EB
:07003B00021B94121EA62215
:1000430002000AE4FFEFC395295009120945120A79
:100053003A0F80F122C28F32021DD7BB010CE58219
:1000630029F582E5833AF583E0225006E92582F8F3
:10007300E622BBFE06E92582F8E222E58229F58223
:10008300E5833AF583E49322BB010689828A83F0F0
:10009300225002F722BBFE01F322F8BB010DE582D9
:1000A30029F582E5833AF583E8F0225006E92582B3
:1000B300C8F622BBFE05E92582C8F222EF8DF0A423
:1000C300A8F0CF8CF0A428CE8DF0A42EFE22BC0085
:1000D3000BBE0029EF8DF084FFADF022E4CCF87560
:1000E300F008EF2FFFEE33FEEC33FCEE9DEC98406F
:1000F30005FCEE9DFE0FD5F0E9E4CEFD22EDF8F50B
:10010300F0EE8420D21CFEADF075F008EF2FFFED6A
:1001130033FD4007985006D5F0F222C398FD0FD562
:10012300F0EA22C2D5EC30E709B2D5E4C39DFDE481
:100133009CFCEE30E715B2D5E4C39FFFE49EFE12AC
:1001430000D1C3E49DFDE49CFC80031200D130D5B3
:1001530007C3E49FFFE49EFE22C5F0F8A3E028F066
:10016300C5F0F8E582158270021583E038F022BBF2
:10017300010A89828A83E0F5F0A3E022500687F022
:1001830009E71922BBFE07E3F5F009E31922898287
:100193008A83E493F5F074019322BB0110E582296D
:1001A300F582E5833AF583E0F5F0A3E0225009E90F
:1001B3002582F886F008E622BBFE0AE92582F8E2EA
:1001C300F5F008E222E5832AF583E993F5F0A3E944
:1001D3009322BB010DC58229C582C5833AC583021B
:1001E300015C5011C58229F808E5F026F618F5F0F0
:1001F300E58236F622BBFE11C58229F808E225F016
:10020300F5F0F218E23582F222F8E58229F582E56B
:10021300832AF58374019325F0F5F0E4933822BB28
:10022300010A89828A83F0E5F0A3F0225006F709D8
:10023300A7F01922BBFE06F3E5F009F31922F8BB78
:100243000111E58229F582E5833AF583E8F0E5F0CB
:10025300A3F0225009E92582C8F608A6F022BBFEC6
:1002630009E92582C8F2E5F008F222E88FF0A4CC70
:100273008BF0A42CFCE98EF0A42CFC8AF0EDA42CCA
:10028300FCEA8EF0A4CDA8F08BF0A42DCC3825F099
:10029300FDE98FF0A42CCD35F0FCEB8EF0A4FEA984
:1002A300F0EB8FF0A4CFC5F02ECD39FEE43CFCEA91
:1002B300A42DCE35F0FDE43CFC2275F008758200D8
:1002C300EF2FFFEE33FECD33CDCC33CCC58233C518
:1002D300829BED9AEC99E58298400CF582EE9BFEA9
:1002E300ED9AFDEC99FC0FD5F0D6E4CEFBE4CDFA04
:1002F300E4CCF9A88222B800C1B90059BA002DECA8
:100303008BF084CFCECDFCE5F0CBF97818EF2FFF3F
:10031300EE33FEED33FDEC33FCEB33FB10D70399E7
:100323004004EB99FB0FD8E5E4F9FA227818EF2F94
:10033300FFEE33FEED33FDEC33FCC933C910D705B3
:100343009BE99A4007EC9BFCE99AF90FD8E0E4C9D2
:10035300FAE4CCFB2275F010EF2FFFEE33FEED3302
:10036300FDCC33CCC833C810D7079BEC9AE899402F
:100373000AED9BFDEC9AFCE899F80FD5F0DAE4CD91
:10038300FBE4CCFAE4C8F922CFF4CFCEF4CECDF41B
:10039300CDCCF4CC22EB9FF5F0EA9E42F0E99D42EE
:1003A300F0E89C45F022E8600FECC313FCED13FD6D
:1003B300EE13FEEF13FFD8F122E8600FEFC333FF14
:1003C300EE33FEED33FDEC33FCD8F122ECF0A3ED7C
:1003D300F0A3EEF0A3EFF022A8828583F0D083D0C0
:1003E300821203F21203F21203F21203F2E473E431
:1003F30093A3C583C5F0C583C8C582C8F0A3C583CD
:10040300C5F0C583C8C582C822A42582F582E5F05C
:100413003583F58322BB010DE58229F582E5833A15
:10042300F5830204D95007E92582F80204C7BBFE0D
:1004330007E92582F80204EBE58229F582E5833A90
:10044300F5830204FDBB0120E58229F582E5833AA9
:10045300F583D0F0D0E0F8D0E0F9D0E0FAD0E0FBBB
:10046300E8C0E0C0F00204E25018E92582F8D08326
:10047300D082D0E0F9D0E0FAD0E0FBC082C08302A2
:1004830004D0BBFE18E92582F8D083D082D0E0F9EE
:10049300D0E0FAD0E0FBC082C0830204F422D08310
:1004A300D082F8E4937012740193700DA3A393F8B0
:1004B300740193F5828883E4737402936860EFA3F5
:1004C300A3A380DFE6FB08E6FA08E6F922EBF608C9
:1004D300EAF608E9F622E0FBA3E0FAA3E0F922EB4F
:1004E300F0A3EAF0A3E9F022E2FB08E2FA08E2F95A
:1004F30022EBF208EAF208E9F222E493FB74019397
:10050300FA740293F922900053EFF0E490005BF049
:10051300900053E0900001120939120A8C900054A4
:10052300F0A3EFF0E47F01FEFDFC900053E0F9F847
:100533001203BC8F288E278D268C25AF01121D57E1
:10054300900059EEF0A3EFF012098C4005120AA0B7
:100553008005E4900056F0900056E06401600302C9
:1005630006BB900053E0FF24071209A1E0C394FAED
:1005730074809480500612099EE004F0120A63FC12
:10058300E4FBFAF9F8C312039860030206A890008B
:1005930000E0900058F012201EEF6030E490005607
:1005A300F0A3F01209D9501812099EE0C394017404
:1005B3008094804006900056E004F0120A8580E3A0
:1005C300120A0C4007900058E0240FF0900053E00B
:1005D30024071209A1120AC050030206A8E49000DE
:1005E30056F0121FF7EF705E900057F01209D950C2
:1005F30022900053E06F601612000E900057E02423
:10060300071209A1E0C39F4005120AA08005120A40
:100613008580D912201EEF3395E04F70639000560A
:10062300E0705DA3F01209D95056900053E06F605B
:100633001012000E9000571209F3E0C39F4002808E
:100643003C120A8580DF12201EEF3395E04F703095
:10065300900058F0900057F01209D9501812099ED3
:10066300E0C39402748094804006900058E004F044
:10067300120A8580E3900058120A0F4003120AA061
:10068300900056E064017002D200E5244528FFE59E
:10069300234527FEE5224526FDE52145258F248EAA
:1006A300238D22F521900053E0FF240B12094FE420
:1006B300F0A31209E60208DE900053E0FF121D9733
:1006C300900054E0FCA3E0FDD31209804008120916
:1006D300F0E004F0800B900066E004F01209F0E40F
:1006E300F0120A96C3E49FFBE49EFAC3ED9BEA1261
:1006F30009824066D312098D5060120A2DF583E4F6
:100703001209E61209B76003020832900054E0FEB2
:10071300A3E0FF900053E09000091209D3EE8FF09D
:1007230012015C12002E12096E40091209A9E47528
:10073300F001801912002EC3E49FFFE49EFE12090C
:100743006E40030208321209A974FFF5F012015C2E
:10075300120964E4F0A3F0020832120A96C3E49F7C
:10076300FFE412098A40030207ED120A2D1209E27F
:10077300F583E4F0740B2FF582E43400F583E0FD98
:10078300902054E493FFED8FF084E5F0704B9020BC
:100793005593FEEF8EF0A4FFC3ED120A7B90005336
:1007A300E04010120A32F583E4F0D20190001604FF
:1007B300F080261209AEC083C082E0FEA3E0FF9062
:1007C3000012E0A2E713FD3395E0FCC3EF9DFFEEBB
:1007D3009CD082D083F0A3EFF0900053E0FF900011
:1007E3005FE06F704A74FFF08045120A96D31209D6
:1007F3008D403C900053E0120A321209B770301258
:100803000AA71209E2F583E064207023120AA7F510
:1008130083E4F0900012E0A2E713A2E713FD3395FF
:10082300E0FC75F002EF1209B1EC8DF012015C12DD
:100833000A634D4E4F70030208EA900059E0FCA38F
:10084300E0FDAE047802CEA2E713CE13D8F8FFC3BF
:10085300ED9FFFEC12098A40030208E31209FEE050
:1008630004F0122002900058EFF0E4900057F012C9
:1008730009D9501812099EE0C394017480948040F2
:1008830006900056E004F0120A8580E3120A0C4039
:1008930008900000E0900058F0900053E0FB120A2B
:1008A30002120AC0500302093474152B120A04E41D
:1008B300F0AF28AE27AD26AC2512038BE5245FFFEE
:1008C300E5235EFEE5225DFDE5215C8F248E238D0D
:1008D30022F52174072BF582E43400F583E4F0223A
:1008E3001209FEE014F022900053E024071209A13C
:1008F3001209B97008900053E0FF1216C4E52914D9
:10090300FF900053E06F7029900066E0C395294083
:1009130020E4900057F01209D9500E12099EE060AE
:1009230003120AA0120A8580ED900056E07002C2FD
:100933000022E0900013FF75F00212040CE0FCA308
:10094300E0FDEF90000575F00202040CF582E4343B
:1009530000F583E4F074152FF582E43400F583E4A5
:10096300F0900009EF75F00202040C900053E0755B
:10097300F00290000912040CE0FCA3E0C39FEE64B4
:1009830080F8EC648098229EFEC3900055E09FEEB1
:100993006480F8900054E06480982274072FF582F5
:1009A300E43400F58322900053E0FF75F0029000D9
:1009B3000102040CF583E4F0FFFEFDFCAB24AA2343
:1009C300A922A821C3020398900054E0FD900013CC
:1009D30075F00202040C900057E0FFC3952922F53D
:1009E30083E004F074032FF582E434002290005373
:1009F300E02408F582E43400F58322900053E024D8
:100A030015F582E43400F58322900056E0C3940385
:100A130074809480227D0A1200D1AD037C00120001
:100A2300BF90005CE0FD90000122900053E0FF24A2
:100A33000BF582E4340022E0FCA3E0FD75F002EF45
:100A430090001312040CECF0A3EDF0227E00900052
:100A530060E0FCA3E0FD1200BF8EE78FE67F022279
:100A6300E5245528FFE5235527FEE5225526FDE518
:100A730021552522A4FFE0C39FE5F06480F874802C
:100A83009822900057E004F022E0FEA3E0C39DFF0C
:100A9300EE9C22900012E0FF3395E0FE2290005678
:100AA3007401F022900053E0FF2403F582E4340044
:100AB30022900012E0FB3395E0FAFEEB22E0FF9078
:100AC3000058E0FEEFC39E229FEE6480F8EA648044
:100AD3009822900052E0FF90005EE0229000ABEB82
:100AE300F0A3EAF0A3E9F07B017A00792DC003C0FB
:100AF30002C0019000ABE0FBA3E0FAA3E0F9900091
:100B030017E0FF7E00E92FF9EA3EFA90008EEBF042
:100B1300A3EAF0A3E9F0D001D002D0031210E9EF69
:100B23004E7003020C82900017E0FFEF1204A10B3A
:100B33003F000B70010BA20200000BD49000ABE04E
:100B4300FBA3E0FAA3E0F9900017E0FF8F8275831F
:100B53000012005EFF7E00EF64AA4E70089000173B
:100B6300E004F08082900017E4F0020AEA9000AB00
:100B7300E0FBA3E0FAA3E0F9900017E0FF8F827592
:100B8300830012005EFF7E00EF64554E70099000F3
:100B930017E004F0020AEA900017E4F0020AEA9070
:100BA30000ABE0FBA3E0FAA3E0F9900017E0FF8FAE
:100BB3008275830012005EFF7E00EF64074E7009AA
:100BC300900017E004F0020AEA900017E4F0020A2A
:100BD300EA900017E004F09000ABE0FBA3E0FAA377
:100BE300E0F975820275830012005EFF900017E042
:100BF300FEEEC39F5015900017E0FF7E00D3EF94E5
:100C030007EE648094805003020AEA9000ABE0FB95
:100C1300A3E0FAA3E0F9C003C002C0019000ABE077
:100C2300FBA3E0FAA3E0F975820275830012005E6C
:100C3300FFEFFD7C00D001D002D00312192F9000EA
:100C430017E0FEEEFD7C00ED24FFFDEC34FFFC908D
:100C530000ABE0FBA3E0FAA3E0F98D828C831200E2
:100C63005EFEEFB5060E9000ABE0FBA3E0FAA3E057
:100C7300F9121744900017E4F0020AEA020AEA2282
:100C8300751000751800751700751600751500129C
:100C930020245003020DB7121E4D8F148E138D1294
:100CA3008C11750F00E50FC39529504DAF14AE138A
:100CB300AD12AC1178011203A98F148E138D128C0F
:100CC3001130D7317F017E007D007C00AB0F7404AF
:100CD3002BF582E43400F583E0F9A8011203BCE5A7
:100CE300184FF518E5174EF517E5164DF516E515EA
:100CF3004CF5150510050F80ACAF107E00C3EF94C3
:100D030002EE64809480401ED200AF107E00C3EFD9
:100D13009403EE6480948040051220278008121FFC
:100D2300F7EF6002C2002000307F007E007D007C70
:100D330000AB18AA17A916A815C312039860109040
:100D43000011E004F07006900010E004F08024909D
:100D53000010E4F0A3E4F0801A90000EE004F070B9
:100D63000690000DE004F075180075170075160065
:100D730075150012001E900010E0FCA3E0FDC3ED0A
:100D83009FEC9E400B122027900010E4F0A3E4F0A8
:100D930090000DE0FEA3E0FFD3EF942CEE9401400E
:100DA300201220279000167401F090000DE4F0A3A8
:100DB300E4F0800D90203AE493FE740193FF120D4A
:100DC300CDAF18AE17AD16AC1522900052EFF090D0
:100DD3000064120A0F403EE4F0900016E0702B907E
:100DE3000053F0900053E0C39529501EE0FF120911
:100DF300D0E0FCA3E0FD75F002EF1209B1ECF0A323
:100E0300EDF0900053E004F080D9121E12C201E409
:100E1300900016F02290005EE004F0120AD5B507A8
:100E230008120046E490005FF0120AD5D39F5003E6
:100E3300020EFEE4900053F0900053E0C395295056
:100E43007A120935120A8CAD07FC900016E0702E59
:100E5300120AB47802C333CE33CED8F9FFD3ED12DE
:100E630009804046E49BFFE49AFEEF7802C333CE49
:100E730033CED8F9FFC3ED120980502E803D120AFC
:100E8300B47803C333CE33CED8F9FFD3ED12098040
:100E93004018E49BFFE49AFEEF7803C333CE33CECE
:100EA300D8F9FFC3ED1209804011900053E0FF12FF
:100EB3000FF9900053E004F0020E3B900053E0B5AD
:100EC300290690005FE004F0900052E0FD75F00801
:100ED30090005E120A774023E4F0C200900064E0C1
:100EE30004F0ED75F00490005F120A77400DE49072
:100EF3000064F0121F7D121E12C20122900067EBE4
:100F0300F0A3EAF0A3E9F090006AECF0A3EDF07B24
:100F1300007A007900C003C002C001900067E0FBC3
:100F2300A3E0FAA3E0F9D082D083D0E06B7008E9A4
:100F330065827003EA65837003020FF890006CE02A
:100F4300FBA3E0FAA3E0F9C003C002C0019000676D
:100F5300E0FBA3E0FAA3E0F97582087583001204AD
:100F630048900067E0FBA3E0FAA3E0F975820875F7
:100F73008300120418C003C002C0017B007A007909
:100F830000D082D083D0E06B7008E965827003EAF9
:100F93006583606190006AE0FEA3E0FF900067E074
:100FA300FBA3E0FAA3E0F9758204758300EE8FF0EA
:100FB300120241900067E0FBA3E0FAA3E0F9E475B5
:100FC300F000120222900067E0FBA3E0FAA3E0F92D
:100FD300758202758300E475F00012024190006788
:100FE300E0FBA3E0FAA3E0F9758206758300E475DC
:100FF300F00012024122900054EFF0F91209351269
:101003000A8C900055F0A3EFF0AF01121D57AD0706
:10101300AC06900055E0FEA3E0FFD39DEC6480F89E
:10102300EE6480985014C3E49DFBE49CFAC3EF9BE9
:10103300EA6480F8EE648098500E900054E0FF124A
:101043000946120A3A0210DDECA2E713FEED13FF84
:10105300900055E0FAA3E0FBD3120ACB5016ECA2A2
:10106300E713FEED13FFC3E49FFFE49EFEC3EB1201
:101073000ACB50231209CBE0FAA3E0FBEAC313FE29
:10108300EB13FFC3EB9FFBEA9EFAED120946E0C3A5
:1010930013FEA3E01380321209CBE0FAA3E0FBAE08
:1010A300027803CEC313CE13D8F9FFC3EB9FFBEA39
:1010B3009EFA75F002ED90000512040CE0FEA3E029
:1010C3007803CEC313CE13D8F92BFFEA3EFE90006C
:1010D30054E01209D0EEF0A3EFF09000541209355A
:1010E300ECF0A3EDF02290008BEBF0A3EAF0A3E980
:1010F300F090008BE0FBA3E0FAA3E0F9121D11EFDF
:101103004E6006E47E007F002290008BE0FBA3E0AC
:10111300FAA3E0F9758208758300120418C003C0AE
:1011230002C00190008BE0FBA3E0FAA3E0F9758213
:101133000275830012019DFFAEF0D001D002D003EF
:101143008F828E8312005EFF90008EE0FBA3E0FA95
:10115300A3E0F9EF12008B90008BE0FBA3E0FAA36E
:10116300E0F975820275830012019DFFAEF0EF2452
:1011730001FFEE3400FE90008BE0FBA3E0FAA3E056
:10118300F975820475830012019DFDACF0120126EE
:1011930090008BE0FBA3E0FAA3E0F975820275836C
:1011A30000EC8DF012024190008BE0FBA3E0FAA368
:1011B300E0F975820675830074FF75F0FF1201D59F
:1011C3007E007F0122900095EBF0A3EAF0A3E9F003
:1011D300900098EDF0900095E0FBA3E0FAA3E0F90E
:1011E300121A19EF4E6006E47E007F0022900098E9
:1011F300E0FF900095E0FBA3E0FAA3E0F975820815
:10120300758300120418C003C002C001900095E06A
:10121300FBA3E0FAA3E0F9120172FDACF0D001D018
:1012230002D0038D828C83EF12009D900095E0FB2A
:10123300A3E0FAA3E0F975820475830012019DFD12
:10124300ACF0900095E0FBA3E0FAA3E0F912017281
:10125300FFAEF0EF2401FFEE3400FE1201269000F2
:1012630095E0FBA3E0FAA3E0F9EC8DF012022290E3
:101273000095E0FBA3E0FAA3E0F97582067583000D
:10128300E475F0011201D57E007F0122C0E0C0F0B9
:10129300C083C082C0D075D000C000C001C002C0EE
:1012A30003C004C005C006C007758A20758CD190A1
:1012B3000047E0FCA3E0FDA3E0FEA3E0FF7B017A8F
:1012C3000079007800EF2BFFEE3AFEED39FDEC38A4
:1012D300FC9000471203CF900024E0FF7E00C3E49C
:1012E3009FFFE49EFEEF25E0FFEE33FE900024E037
:1012F300FD7C00EF2DFFEE3CFEEF24FFFFEE3400FC
:10130300FE900041E475F00112015CADF0FCD3EDF9
:101313009FEC9E400E900041E4F0A3E4F090005156
:101323007401F0D007D006D005D004D003D002D08A
:1013330001D000D0D0D082D083D0F0D0E032C0E052
:10134300C0F0C083C082C0D075D000C000C001C04F
:1013530002C003C004C005C006C007C2CF90004B43
:10136300E0FCA3E0FDA3E0FEA3E0FF7B017A0079AC
:10137300007800EF2BFFEE3AFEED39FDEC38FC90E0
:10138300004B1203CF900043E475F00112015CAFF0
:10139300F0FED3EF94C7EE9400400E900043E4F0C8
:1013A300A3E4F09000507401F0900024E0FF7E006D
:1013B300900045E475F00112015CADF0FCD3ED9FA4
:1013C300EC9E400E900045E4F0A3E4F090004F74CF
:1013D30001F0D007D006D005D004D003D002D0014D
:1013E300D000D0D0D082D083D0F0D0E0329000852E
:1013F300EEF0A3EFF053A1FC43A203438FC0759D0E
:1014030050900085E0FEA3E0FFE4FCFD7B407A42C0
:10141300790F780012026E900087E0F8A3E0F9A339
:10142300E0FAA3E0FB1202F98F9E900085E0FEA391
:10143300E0FFE4FCFD7B407A42790F780012026EF4
:10144300900087E0F8A3E0F9A3E0FAA3E0FB12021F
:10145300F978081203A98F9543A901D2AF7B017ACA
:1014630000792DC003C002C0017B017A0079389056
:10147300006CEBF0A3EAF0A3E9F0D001D002D003B3
:101483007D097C00120EFF2278FFE4F6D8FD900060
:10149300007F007E03E4F0A3DFFCDEFA75812902FE
:1014A30014E0021ECDE493A3F8E493A34003F68073
:1014B30001F208DFF48029E493A3F85407240CC84D
:1014C300C333C4540F4420C8834004F456800146F8
:1014D300F6DFE4800B010204081020408090183DE1
:1014E300E47E019360BCA3FF543F30E509541FFE23
:1014F300E493A360010ECF54C025E060A840B8E494
:1015030093A3FAE493A3F8E493A3C8C582C8CAC516
:1015130083CAF0A3C8C582C8CAC583CADFE9DEE7A8
:1015230080BE90000FE0FFEF20E7030215B69000A6
:101533000FE0FFEF547FFF90000FEFF0120C83904A
:1015430000181203CF900018E0FCA3E0FDA3E0FE17
:10155300A3E0FFEF5401FFEE5400FEED5400FDEC59
:101563005400FCEC4D4E4F6004D203801D30031A2F
:10157300C20390001EE0FF7E00EF64014E70047F03
:101583000080027F0190001EEFF0121B3E7B017A68
:1015930000791F120ADF121F9C7F01121F3DEF60AB
:1015A300097B017A007926121BE9300203121CC958
:1015B30012202122C2AF75FEC1AFFFD2AFEF54306C
:1015C300FD7C0070047918801CED64104C70047964
:1015D3000C8012ED64204C700479068008ED6430B1
:1015E3004C70027902E924FA601724FA601F24F48C
:1015F30060272416702E900054E4F0A37496F080B4
:10160300259000547401F0A374C2F0801990005423
:101613007403F0A37484F0800D9000547407F0A356
:1016230004F08002E4F9900054E07002A3E0600C3F
:1016330090005474FFF5F012015C80EA2275FE8578
:1016430043FF20D2AFC201E4900065F090000FF099
:10165300121AE5E4FF121C7FEF2401FDE433FC7E44
:101663000B7FB81200D1900060EEF0A3EFF0E4FF1F
:10167300121FB9120A4F121C7FEFC454F0FEC006AA
:10168300E4FF121C7FD0E02FF5E17F03121C7FE5FE
:10169300E254804FF5E27F04121C7FEF6008E5E21D
:1016A30054804480F5E27F01121C7F8FE3121E12E7
:1016B30043A910900004E04480F5E81218B6021F15
:1016C3007D90005CEFF0121FD590005DEFF01217D4
:1016D30039900061E025E0FF900060E033FE7C007C
:1016E300120A18120949E0FAA3E0C39FEA9E5009BF
:1016F30090005DE0603F14802D121739900060E088
:10170300FEA3E0FF7C007D071200BF120A18120936
:1017130068E0FAA3E0D39FEA9E401A90005DE0FFE1
:10172300647E6011EF04FF740C2DF582E43400F540
:1017330083EFF0D2012290005CE0FF121FB9EFFBB0
:10174300229000A8EBF0A3EAF0A3E9F09000A8E050
:10175300FBA3E0FAA3E0F975820475830012005E2F
:10176300FFEF540FFF7E00EF4E700775D600C202E5
:10177300804B9000A8E0FBA3E0FAA3E0F975820494
:1017830075830012005EFFEF540FFF7E00EF6401CC
:101793004E700775D664C20280239000A8E0FBA3B5
:1017A300E0FAA3E0F975820475830012005EFFEF8F
:1017B300540FFF7E00EF64024E7002D2027F0022BC
:1017C300C206900065E0120946E5E5F0A3E5E4F002
:1017D300900065E004F0E0C39529400BE4F090002D
:1017E3000FE04480F08002D2067F02121C7FEFC418
:1017F30054F0F5E1900065E0FF121FB9120A4F1291
:101803001C7FEFC454F0FEC006E4FF121C7FD0E03F
:101813002FF5E1900065E0FF121FD5E5E254804FFC
:10182300F5E2900065E02404F582E43400F583E0FA
:101833004480F5E8300602D2EE22C10449003800A4
:101843000000000000000000410051004100500072
:1018530041004F004400470000000044004B0000DB
:1018630000004200410000420043000042004500E6
:1018730000410016004100640047001F0000000003
:10188300000000C103C102470026AA880700000028
:101893000041001E0041001D0041001C00410017D3
:1018A300004100B564C1050048006F00000000005E
:1018B300000000902056E493900052F0121F18E4A9
:1018C300900053F0900053E0FFC395295021E0FEB0
:1018D300120946E0FCA3E0FD75F002EE1209B1EC3B
:1018E300F0A3EDF01216C4900053E004F080D590FD
:1018F3000052E0FF14F0EF70C3120046121FEC9089
:101903000052EFF0121F18E4900053F0900053E0E0
:10191300FFC39529500B120FF9900053E004F08098
:10192300EB900052E0FF14F0EF70D92290007EEBB1
:10193300F0A3EAF0A3E9F0900081ECF0A3EDF090BE
:101943000084E4F09000837401F0900081E0FEA332
:10195300E0FFEF24FFFFEE34FFFE900083E0FD7C09
:1019630000C3ED9FEE6480F8EC64809850279000EC
:101973007EE0FBA3E0FAA3E0F9900083E0FF8F820F
:1019830075830012005EFF900084E02FF0900083C7
:10199300E004F080B5900084E0FFEFF404FFEF541F
:1019A300FFFF22900077EBF0A3EAF0A3E9F09000A9
:1019B3007AECF0A3EDF090007DE4F090007C7401EC
:1019C300F090007AE0FEA3E0FFEF24FFFFEE34FF88
:1019D300FE90007CE0FD7C00C3ED9FEE6480F8EC9C
:1019E3006480985027900077E0FBA3E0FAA3E0F926
:1019F30090007CE0FF8F8275830012005EFF9000F1
:101A03007DE02FF090007CE004F080B590007DE055
:101A1300FFEFF404FF2290009FEBF0A3EAF0A3E9A9
:101A2300F090009FE0FBA3E0FAA3E0F97582047550
:101A3300830012019DFDACF090009FE0FBA3E0FA50
:101A4300A3E0F9120172FFAEF0EF2401FFEE3400C0
:101A5300FE12012690009FE0FBA3E0FAA3E0F975D4
:101A6300820275830012019DFFAEF0EDB50709EC0C
:101A7300B506057E007F0122E47E007F0022750803
:101A830000750900750D01750C00750B00750A00D2
:101A9300750800AF087E00C3EF941FEE6480948046
:101AA300503CAF0DAE0CAD0BAC0A78011203A98FFD
:101AB3000D8E0C8D0B8C0A30D720AF0974042FF5D3
:101AC30082E43400F583E508F00509AF097E00C31D
:101AD300EF9401EE648094805004050880B5850975
:101AE3002922902030E493FE740193FF900000EFCD
:101AF300F090204AE493FE740193FF900012EFF0FC
:101B0300121A81750E00E50EC395295025AF0EEF0D
:101B130075F008A42450F582E43420F583E493FFA0
:101B2300AE0E740C2EF582E43400F583EFF0050E4F
:101B330080D4900010E4F0A3E4F02290002674AA6D
:101B4300F09000277488F09000287407F090002923
:101B5300E0FFEF54FEFF90001DE0FEEF4EFF90000C
:101B630029EFF090002AE0FFEF54FEFF90001EE003
:101B7300FEEF4EFF90002AEFF07B017A007926906A
:101B83000028E0FFEFFD7C001219A690002CEFF077
:101B930022C0E0C0F0C083C082C0D075D000C000B6
:101BA300C001C002C003C004C005C006C007E59D54
:101BB30030E105539DFDD204E59D30E00E539DFEBB
:101BC3007B017A00792DAD9F1211C8D007D006D0C2
:101BD30005D004D003D002D001D000D0D0D082D021
:101BE30083D0F0D0E032900091EBF0A3EAF0A3E9C8
:101BF300F0900094E4F0900094E0FF7E00C3EF9433
:101C030007EE648094805028900091E0FBA3E0FAF3
:101C1300A3E0F9900094E0FF8F8275830012005EC9
:101C2300FF8F9F3004FDC204900094E004F080C64F
:101C3300222094FD90004B1203DB000000007FE89C
:101C43007E037D007C0090004BE0F8A3E0F9A3E065
:101C5300FAA3E0FBD3120398502180E27FE87E03CE
:101C63007D007C0090004BE0F8A3E0F9A3E0FAA329
:101C7300E0FBC312039870C62280C3229000B4EF26
:101C8300F09000B4E0FFEF1204A11CA0001CA70118
:101C93001CAE021CB5031CBB0400001CC690204CE8
:101CA300E493FF2290204DE493FF2290204EE4938F
:101CB300FF227F00121FD52290203EE493FE740181
:101CC30093FF227F00227F01121F5DEF603F2005FB
:101CD3001B9000B5E0FF8FD69000B5E014F09000A4
:101CE300B5E0FF7E00EF4E7024D205229000B5E0F0
:101CF300FF8FD69000B5E004F09000B5E0FF7E00C2
:101D0300D3EF9464EE648094804002C20522900075
:101D1300A2EBF0A3EAF0A3E9F09000A2E0FBA3E0BA
:101D2300FAA3E0F975820275830012019DFFAEF0FC
:101D33009000A2E0FBA3E0FAA3E0F9120172FDAC6C
:101D4300F0EDB50709ECB506057E007F0122E47EC0
:101D5300007F00229000B1EFF09000B1E0FFEF753B
:101D6300F008A42452F582E43420F583E493FF7E43
:101D730000EF7F00FE9000B1E0FDED75F008A424B4
:101D830053F582E43420F583E493FD7C00EF2DFFCB
:101D9300EE3CFE22900099EFF0900099E0FF121DB7
:101DA3005790009AEEF0A3EFF090009AE0FEA3E0C4
:101DB300FFEF7803C333CE33CED8F9FF7C007D0A1F
:101DC3001200D190009AEEF0A3EFF090009AE0FE9B
:101DD300A3E0FF22C0E0C0F0C083C082C0D075D0B2
:101DE30000C000C001C002C003C004C005C006C0DB
:101DF300071217C3D007D006D005D004D003D002F2
:101E0300D001D000D0D0D082D083D0F0D0E032E463
:101E1300FFEFC39529501A12099EE4F0740B2F1299
:101E2300094FE4F0A3F074082F1209F6E4F00F80D1
:101E3300E0E4F524F523F522F52190005F74FFF02B
:101E4300E4900062F0A3F0C20122E4900066F090F7
:101E53000052F0900052E0FFC395295013120FF97E
:101E6300900052E0FF120509900052E004F080E375
:101E7300AF24AE23AD22AC212275D10075D23F75BC
:101E8300D40075D36475D50075D60075D72875DC75
:101E93000075DD0075DE0075DF1443D28043A902AF
:101EA300D2AF22758E07438901758A20758CD1C202
:101EB3008CD2A9D28C75C90075C80075CBD175CAEF
:101EC30020C2CAD2ADD2CAD2AF22121EF312003E32
:101ED300121E7C1200031216409000871203DB00CF
:101EE3000025807F0C7E001213F012152580FB2243
:101EF300759AFF759B007591FF75920075A1FF752B
:101F0300A20075D9FF75DA00439ADC4391C043A15F
:101F13008C43D90322E4FE90000FE0547FF0D2EE0D
:101F230090000FE0548070111215B743CF100EEEDE
:101F3300C394647480948040E7229000AFEFF090E4
:101F43000050E0FFEF60109000AFE0FFEF600590FE
:101F53000050E4F07F01227F00229000B0EFF09068
:101F6300004FE0FFEF60109000B0E0FFEF600590DE
:101F7300004FE4F07F01227F0022E4FFEFC39529A5
:101F83005016120945E0FCA3E0FD90000112096719
:101F9300ECF0A3EDF00F80E42212201590001CEF6B
:101FA300F090001CE0FFEF600790001D7401F02229
:101FB30090001DE4F0229000B2EFF09000B2E0FF39
:101FC300EF75F008A4244FF582E43420F583E493FD
:101FD300FF229000B3EFF09000B3E0FF740C2FF5F5
:101FE30082E43400F583E0FF22902032E493FE7410
:101FF3000193FF2290202CE493FE740193FF22901F
:102003000000E0FFEFC313FF225391EF439202D28C
:1020130091223094037F01227F00227F0122D2EE9E
:1020230022A20122D20122000000000000000F00C2
:102033000A0BB800C800640005000000000004009B
:10204300000001FFFFFFFF0014023204083A0502FB
:04205300A20A0A20B3
:00000001FF
