:1000000002151E02000E121E992232021282B280C6
:0100100032BD
:06001300021F30B285322D
:06001B0002001EC28F323C
:060023000220127F012201
:06002B00021334D2EE22A4
:06003300022088A2032256
:06003B00021B3BD2032270
:0300430002000AAE
:03004B000220216F
:0300530002001692
:10005B00021DCABB010CE58229F582E5833AF583C3
:10006B00E0225006E92582F8E622BBFE06E925824E
:10007B00F8E222E58229F582E5833AF583E49322BF
:10008B00BB010689828A83F0225002F722BBFE0154
:10009B00F322F8BB010DE58229F582E5833AF5835E
:1000AB00E8F0225006E92582C8F622BBFE05E925B9
:1000BB0082C8F222EF8DF0A4A8F0CF8CF0A428CE4A
:1000CB008DF0A42EFE22BC000BBE0029EF8DF08418
:1000DB00FFADF022E4CCF875F008EF2FFFEE33FE06
:1000EB00EC33FCEE9DEC984005FCEE9DFE0FD5F03D
:1000FB00E9E4CEFD22EDF8F5F0EE8420D21CFEAD46
:10010B00F075F008EF2FFFED33FD4007985006D543
:10011B00F0F222C398FD0FD5F0EA22C2D5EC30E7FE
:10012B0009B2D5E4C39DFDE49CFCEE30E715B2D5D6
:10013B00E4C39FFFE49EFE1200D1C3E49DFDE49C4B
:10014B00FC80031200D130D507C3E49FFFE49EFE71
:10015B0022C5F0F8A3E028F0C5F0F8E5821582700F
:10016B00021583E038F022A3F8E0C5F025F0F0E5A6
:10017B0082158270021583E0C838F0E822BB010AB1
:10018B0089828A83E0F5F0A3E022500687F009E725
:10019B001922BBFE07E3F5F009E3192289828A8352
:1001AB00E493F5F074019322BB0110E58229F582EB
:1001BB00E5833AF583E0F5F0A3E0225009E92582C7
:1001CB00F886F008E622BBFE0AE92582F8E2F5F094
:1001DB0008E222E5832AF583E993F5F0A3E993225C
:1001EB00BB010DC58229C582C5833AC58302015C5B
:1001FB005011C58229F808E5F026F618F5F0E582CE
:10020B0036F622BBFE11C58229F808E225F0F5F07F
:10021B00F218E23582F222F8E58229F582E5832A8B
:10022B00F58374019325F0F5F0E4933822BB010AB2
:10023B0089828A83F0E5F0A3F0225006F709A7F034
:10024B001922BBFE06F3E5F009F31922F8BB0111E5
:10025B00E58229F582E5833AF583E8F0E5F0A3F032
:10026B00225009E92582C8F608A6F022BBFE09E94F
:10027B002582C8F2E5F008F222E88FF0A4CC8BF0CF
:10028B00A42CFCE98EF0A42CFC8AF0EDA42CFCEA47
:10029B008EF0A4CDA8F08BF0A42DCC3825F0FDE981
:1002AB008FF0A42CCD35F0FCEB8EF0A4FEA9F0EB77
:1002BB008FF0A4CFC5F02ECD39FEE43CFCEAA42D83
:1002CB00CE35F0FDE43CFC2275F008758200EF2F73
:1002DB00FFEE33FECD33CDCC33CCC58233C5829B01
:1002EB00ED9AEC99E58298400CF582EE9BFEED9A27
:1002FB00FDEC99FC0FD5F0D6E4CEFBE4CDFAE4CCC3
:10030B00F9A88222B800C1B90059BA002DEC8BF0C4
:10031B0084CFCECDFCE5F0CBF97818EF2FFFEE3381
:10032B00FEED33FDEC33FCEB33FB10D703994004AC
:10033B00EB99FB0FD8E5E4F9FA227818EF2FFFEED3
:10034B0033FEED33FDEC33FCC933C910D7059BE904
:10035B009A4007EC9BFCE99AF90FD8E0E4C9FAE460
:10036B00CCFB2275F010EF2FFFEE33FEED33FDCCFF
:10037B0033CCC833C810D7079BEC9AE899400AEDE9
:10038B009BFDEC9AFCE899F80FD5F0DAE4CDFBE491
:10039B00CCFAE4C8F922CFF4CFCEF4CECDF4CDCC49
:1003AB00F4CC22EB9FF5F0EA9E42F0E99D42F0E897
:1003BB009C45F022E8600FECC313FCED13FDEE132C
:1003CB00FEEF13FFD8F122E8600FEFC333FFEE33DC
:1003DB00FEED33FDEC33FCD8F122ECF0A3EDF0A3F2
:1003EB00EEF0A3EFF022A8828583F0D083D08212A7
:1003FB000408120408120408120408E473E493A31B
:10040B00C583C5F0C583C8C582C8F0A3C583C5F035
:10041B00C583C8C582C822A42582F582E5F0358341
:10042B00F58322BB010DE58229F582E5833AF5833D
:10043B000204EF5007E92582F80204DDBBFE07E951
:10044B002582F8020501E58229F582E5833AF583D9
:10045B00020513BB0120E58229F582E5833AF5837A
:10046B00D0F0D0E0F8D0E0F9D0E0FAD0E0FBE8C073
:10047B00E0C0F00204F85018E92582F8D083D0824E
:10048B00D0E0F9D0E0FAD0E0FBC082C0830204E6F2
:10049B00BBFE18E92582F8D083D082D0E0F9D0E0FA
:1004AB00FAD0E0FBC082C08302050A22D083D0823F
:1004BB00F8E4937012740193700DA3A393F8740175
:1004CB0093F5828883E4737402936860EFA3A3A30C
:1004DB0080DFE6FB08E6FA08E6F922EBF608EAF617
:1004EB0008E9F622E0FBA3E0FAA3E0F922EBF0A384
:1004FB00EAF0A3E9F022E2FB08E2FA08E2F922EBC8
:10050B00F208EAF208E9F222E493FB740193FA741D
:10051B000293F922900060EFF0E4900068F09000F5
:10052B0060E090000112094F120AA2900061F0A343
:10053B00EFF0E47F01FEFDFC900060E0F9F81203A0
:10054B00D28F298E288D278C26AF01121D0C90007F
:10055B0066EEF0A3EFF01209A24005120AB6800571
:10056B00E4900063F0900063E0640160030206D145
:10057B00900060E0FF24071209B7E0C394FA74807F
:10058B00948050061209B4E004F0120A79FCE4FBE3
:10059B00FAF9F8C31203AE60030206BE900000E046
:1005AB00900065F0120026EF6030E4900063F0A33A
:1005BB00F01209EF50181209B4E0C394017480943F
:1005CB00804006900063E004F0120A9B80E3120A5D
:1005DB00224007900065E0240FF0900060E02407B4
:1005EB001209B7120AD650030206BEE4900063F05C
:1005FB0012205AEF705E900064F01209EF502290B7
:10060B000060E06F601612202D900064E02407124A
:10061B0009B7E0C39F4005120AB68005120A9B80FA
:10062B00D9120026EF3395E04F7063900063E070B2
:10063B005DA3F01209EF5056900060E06F6010124E
:10064B00202D900064120A09E0C39F4002803C12E7
:10065B000A9B80DF120026EF3395E04F703090003D
:10066B0065F0900064F01209EF50181209B4E0C362
:10067B009402748094804006900065E004F0120AA6
:10068B009B80E3900065120A254003120AB6900086
:10069B0063E064017002D202E5254529FFE524459C
:1006AB0028FEE5234527FDE52245268F258E248D43
:1006BB0023F522900060E0FF240B120965E4F0A300
:1006CB001209FC0208F4900060E0FF121D4C900030
:1006DB0061E0FCA3E0FDD31209964008120A06E084
:1006EB0004F0800B900091E004F0120A06E4F01283
:1006FB000AACC3E49FFBE49EFAC3ED9BEA12099894
:10070B004066D31209A35060120A43F583E4120921
:10071B00FC1209CD6003020848900061E0FEA3E0E3
:10072B00FF900060E09000091209E9EE8FF01201D2
:10073B005C12204412098440091209BFE475F001D0
:10074B008019122044C3E49FFFE49EFE12098440EB
:10075B00030208481209BF74FFF5F012015C12097D
:10076B007AE4F0A3F0020848120AACC3E49FFFE45A
:10077B001209A04003020803120A431209F8F58379
:10078B00E4F0740B2FF582E43400F583E0FD902048
:10079B00B8E493FFED8FF084E5F0704B9020B993A4
:1007AB00FEEF8EF0A4FFC3ED120A91900060E040C3
:1007BB0010120A48F583E4F0D20390001604F0807F
:1007CB00261209C4C083C082E0FEA3E0FF90001292
:1007DB00E0A2E713FD3395E0FCC3EF9DFFEE9CD049
:1007EB0082D083F0A3EFF0900060E0FF90008AE0EE
:1007FB006F704A74FFF08045120AACD31209A34004
:10080B003C900060E0120A481209CD7030120ABD0C
:10081B001209F8F583E064207023120ABDF583E416
:10082B00F0900012E0A2E713A2E713FD3395E0FC72
:10083B0075F002EF1209C7EC8DF012015C120A7908
:10084B004D4E4F7003020900900066E0FCA3E0FDE3
:10085B00AE047802CEA2E713CE13D8F8FFC3ED9FF8
:10086B00FFEC1209A040030208F9120A14E004F08D
:10087B00122065900065EFF0E4900064F01209EF30
:10088B0050181209B4E0C394017480948040069010
:10089B000063E004F0120A9B80E3120A22400890E6
:1008AB000000E0900065F0900060E0FB120A181267
:1008BB000AD6500302094A74152B120A1AE4F0AF38
:1008CB0029AE28AD27AC261203A1E5255FFFE52451
:1008DB005EFEE5235DFDE5225C8F258E248D23F5E1
:1008EB002274072BF582E43400F583E4F022120A1C
:1008FB0014E014F022900060E024071209B71209EB
:10090B00CF7008900060E0FF121753E52A14FF9098
:10091B000060E06F7029900091E0C3952A4020E4BD
:10092B00900064F01209EF500E1209B4E06003124C
:10093B000AB6120A9B80ED900063E07002C202229D
:10094B00E0900013FF75F002120422E0FCA3E0FD1F
:10095B00EF90000575F002020422F582E43400F5F5
:10096B0083E4F074152FF582E43400F583E4F09002
:10097B000009EF75F002020422900060E075F002AE
:10098B00900009120422E0FCA3E0C39FEE6480F800
:10099B00EC648098229EFEC3900062E09FEE648020
:1009AB00F8900061E06480982274072FF582E4349C
:1009BB0000F58322900060E0FF75F00290000102C9
:1009CB000422F583E4F0FFFEFDFCAB25AA24A9234A
:1009DB00A822C30203AE900061E0FD90001375F0F6
:1009EB0002020422900064E0FFC3952A22F583E003
:1009FB0004F074032FF582E4340022900060E024AD
:100A0B0008F582E43400F58322900060E02415F5AC
:100A1B0082E43400F58322900063E0C39403748076
:100A2B009480227D0A1200D1AD037C001200BF908E
:100A3B000069E0FD90000122900060E0FF240BF5BF
:100A4B0082E4340022E0FCA3E0FD75F002EF90009D
:100A5B0013120422ECF0A3EDF0227E0090008BE049
:100A6B00FCA3E0FD1200BF8EE78FE67F0222E52597
:100A7B005529FFE5245528FEE5235527FDE522558D
:100A8B002622A4FFE0C39FE5F06480F874809822CF
:100A9B00900064E004F022E0FEA3E0C39DFFEE9C17
:100AAB0022900012E0FF3395E0FE22900063740168
:100ABB00F022900060E0FF2403F582E434002290E2
:100ACB000012E0FB3395E0FAFEEB22E0FF900065AD
:100ADB00E0FEEFC39E229FEE6480F8EA64809822CA
:100AEB0090005FE0FF900089E0229000FBEBF0A309
:100AFB00EAF0A3E9F07B017A00792CC003C002C0B5
:100B0B00019000FBE0FBA3E0FAA3E0F9900017E0F3
:100B1B00FF7E00E92FF9EA3EFA9000BFEBF0A3EA63
:100B2B00F0A3E9F0D001D002D0031210DCEF4E702D
:100B3B0003020C85900017E0FFEF1204B70B550072
:100B4B000B82010BB00200000BDE9000FBE0FBA35D
:100B5B00E0FAA3E0F9900017E0FF8F827583001293
:100B6B00005EFFEFB4AA08900017E004F0808690B7
:100B7B000017E4F0020B009000FBE0FBA3E0FAA3EC
:100B8B00E0F9900017E0FF8F8275830012005EFF83
:100B9B00EFB45509900017E004F0020B009000171A
:100BAB00E4F0020B009000FBE0FBA3E0FAA3E0F9FA
:100BBB00900017E0FF8F8275830012005EFFEFB489
:100BCB000709900017E004F0020B00900017E4F007
:100BDB00020B00900017E004F09000FBE0FBA3E099
:100BEB00FAA3E0F975820275830012005EFF900094
:100BFB0017E0FEEEC39F500E900017E0FFEFD3946B
:100C0B00075003020B009000FBE0FBA3E0FAA3E00C
:100C1B00F9C003C002C0019000FBE0FBA3E0FAA304
:100C2B00E0F975820275830012005EFFEFFD7C0018
:100C3B00D001D002D0031218C6900017E0FEEEFDD3
:100C4B007C00ED24FFFDEC34FFFC9000FBE0FBA3EC
:100C5B00E0FAA3E0F98D828C8312005EFEEFB506FD
:100C6B000E9000FBE0FBA3E0FAA3E0F912193D9014
:100C7B000017E4F0020B00020B0022751000751830
:100C8B00007517007516007515001200365003021B
:100C9B000DAA121E408F148E138D128C11750F001E
:100CAB00E50FC3952A504DAF14AE13AD12AC1178AE
:100CBB00011203BF8F148E138D128C1130D7317F1D
:100CCB00017E007D007C00AB0F74042BF582E434B5
:100CDB0000F583E0F9A8011203D2E5184FF518E5EA
:100CEB00174EF517E5164DF516E5154CF5150510D0
:100CFB00050F80ACE510C394024016D202E510C379
:100D0B009403400512003E800812205AEF6002C285
:100D1B00022002307F007E007D007C00AB18AA17FA
:100D2B00A916A815C31203AE6010900011E004F0D1
:100D3B007006900010E004F08024900010E4F0A303
:100D4B00E4F0801A90000EE004F0700690000DE0C5
:100D5B0004F0751800751700751600751500122034
:100D6B0039900010E0FCA3E0FDC3ED9FEC9E400B1F
:100D7B0012003E900010E4F0A3E4F090000DE0FEB2
:100D8B00A3E0FFD3EF942CEE9401402012003E9091
:100D9B0000167401F090000DE4F0A3E4F0800D90C8
:100DAB00209EE493FE740193FF120DC0AF18AE1793
:100DBB00AD16AC152290005FEFF090008F120A2554
:100DCB00403EE4F0900016E0702B900060F0900035
:100DDB0060E0C3952A501EE0FF1209E6E0FCA3E099
:100DEB00FD75F002EF1209C7ECF0A3EDF090006077
:100DFB00E004F080D9121E05C203E4900016F02225
:100E0B00900089E004F0120AEBB50708122000E409
:100E1B0090008AF0120AEBD39F5003020EF1E4907C
:100E2B000060F0900060E0C3952A507A12094B12D3
:100E3B000AA2AD07FC900016E0702E120ACA7802C7
:100E4B00C333CE33CED8F9FFD3ED1209964046E427
:100E5B009BFFE49AFEEF7802C333CE33CED8F9FF73
:100E6B00C3ED120996502E803D120ACA7803C33384
:100E7B00CE33CED8F9FFD3ED1209964018E49BFF81
:100E8B00E49AFEEF7803C333CE33CED8F9FFC3ED2C
:100E9B001209964011900060E0FF120FEC90006079
:100EAB00E004F0020E2E900060E0B52A0690008A56
:100EBB00E004F090005FE0FD75F008900089120AE5
:100ECB008D4023E4F0C20290008FE004F0ED75F04A
:100EDB000490008A120A8D400DE490008FF0121FCF
:100EEB0091121E05C20322900092EBF0A3EAF0A32D
:100EFB00E9F0900095ECF0A3EDF07B007A0079001F
:100F0B00C003C002C001900092E0FBA3E0FAA3E093
:100F1B00F9D082D083D0E06B7008E965827003EA68
:100F2B0065837003020FEB900097E0FBA3E0FAA33D
:100F3B00E0F9C003C002C001900092E0FBA3E0FA0D
:100F4B00A3E0F975820875830012045E900092E0AD
:100F5B00FBA3E0FAA3E0F975820875830012042E57
:100F6B00C003C002C0017B007A007900D082D0831D
:100F7B00D0E06B7008E965827003EA65836061906D
:100F8B000095E0FEA3E0FF900092E0FBA3E0FAA344
:100F9B00E0F9758204758300EE8FF0120257900012
:100FAB0092E0FBA3E0FAA3E0F9E475F0001202383B
:100FBB00900092E0FBA3E0FAA3E0F975820275833F
:100FCB0000E475F000120257900092E0FBA3E0FAE8
:100FDB00A3E0F9758206758300E475F000120257E1
:100FEB0022900061EFF0F912094B120AA2900062F5
:100FFB00F0A3EFF0AF01121D0CAD07AC0690006231
:10100B00E0FEA3E0FFD39DEC6480F8EE6480985083
:10101B0014C3E49DFBE49CFAC3EF9BEA6480F8EEF7
:10102B00648098500E900061E0FF12095C120A5028
:10103B000210D0ECA2E713FEED13FF900062E0FA72
:10104B00A3E0FBD3120AE15016ECA2E713FEED135B
:10105B00FFC3E49FFFE49EFEC3EB120AE150231291
:10106B0009E1E0FAA3E0FBEAC313FEEB13FFC3EBCA
:10107B009FFBEA9EFAED12095CE0C313FEA3E0139B
:10108B0080321209E1E0FAA3E0FBAE027803CEC393
:10109B0013CE13D8F9FFC3EB9FFBEA9EFA75F00250
:1010AB00ED900005120422E0FEA3E07803CEC313FB
:1010BB00CE13D8F92BFFEA3EFE900061E01209E651
:1010CB00EEF0A3EFF090006112094BECF0A3EDF002
:1010DB00229000BCEBF0A3EAF0A3E9F09000BCE097
:1010EB00FBA3E0FAA3E0F9121C82EF4E6006E47E4C
:1010FB00007F00229000BCE0FBA3E0FAA3E0F975AF
:10110B00820875830012042EC003C002C001900038
:10111B00BCE0FBA3E0FAA3E0F97582027583001231
:10112B0001B3FFAEF0D001D002D0038F828E8312B9
:10113B00005EFF9000BFE0FBA3E0FAA3E0F9EF1223
:10114B00008B9000BCE0FBA3E0FAA3E0F9758202F0
:10115B007583001201B3FFAEF0EF2401FFEE3400F4
:10116B00FE9000BCE0FBA3E0FAA3E0F975820475E6
:10117B0083001201B3FDACF01201269000BCE0FB22
:10118B00A3E0FAA3E0F9758202758300EC8DF012EF
:10119B0002579000BCE0FBA3E0FAA3E0F9758206CE
:1011AB0075830074FF75F0FF1201EB7E007F012247
:1011BB009000DFEBF0A3EAF0A3E9F09000E2EDF092
:1011CB009000DFE0FBA3E0FAA3E0F9121A24EF4E44
:1011DB006006E47E007F00229000E2E0FF9000DFDB
:1011EB00E0FBA3E0FAA3E0F9758208758300120413
:1011FB002EC003C002C0019000DFE0FBA3E0FAA306
:10120B00E0F9120188FDACF0D001D002D0038D8241
:10121B008C83EF12009D9000DFE0FBA3E0FAA3E0CC
:10122B00F97582047583001201B3FDACF09000DFF9
:10123B00E0FBA3E0FAA3E0F9120188FFAEF0EF2484
:10124B0001FFEE3400FE1201269000DFE0FBA3E06D
:10125B00FAA3E0F9EC8DF01202389000DFE0FBA36B
:10126B00E0FAA3E0F9758206758300E475F00112CC
:10127B0001EB7E007F0122C0E0C0F0C083C082C0C2
:10128B00D075D000C000C001C002C003C004C005AF
:10129B00C006C007758A20758CD1900046E0FCA370
:1012AB00E0FDA3E0FEA3E0FF7B017A00790078006C
:1012BB00EF2BFFEE3AFEED39FDEC38FC90004612B9
:1012CB0003E5900023E0FF7E00C3E49FFFE49EFE56
:1012DB00EF25E0FFEE33FE900023E0FD7C00EF2DC9
:1012EB00FFEE3CFEEF24FFFFEE3400FE900040E4E7
:1012FB0075F00112015CADF0FCD3ED9FEC9E400E3E
:10130B00900040E4F0A3E4F09000507401F0D0079B
:10131B00D006D005D004D003D002D001D000D0D05D
:10132B00D082D083D0F0D0E032C0E0C0F0C083C018
:10133B0082C0D075D000C000C001C002C003C00481
:10134B00C005C006C007C2CF90004AE0FCA3E0FD79
:10135B00A3E0FEA3E0FF7B017A0079007800EF2B7E
:10136B00FFEE3AFEED39FDEC38FC90004A1203E536
:10137B00900042E475F00112015CAFF0FED3EF94E4
:10138B00C7EE9400400E900042E4F0A3E4F090000E
:10139B004F7401F0900023E0FF7E00900044E47551
:1013AB00F00112015CADF0FCD3ED9FEC9E400E9072
:1013BB000044E4F0A3E4F090004E7401F0D007D0A9
:1013CB0006D005D004D003D002D001D000D0D0D0AD
:1013DB0082D083D0F0D0E032410100004200E40023
:1013EB00004100E3004400550000000044005100A0
:1013FB0000000042005D0000C106490037000000FC
:10140B000000000000004100500041004F0041006F
:10141B004E004400460000000044004A000000005B
:10142B00420040000042004200004200440000C164
:10143B0000C1014200FE0000C1074100160041003F
:10144B008F0047001E00000000000000C105C10412
:10145B00470025AA88070000000041001D0041003D
:10146B001C004100170041010964C1080048009AA3
:10147B0000000000000000009000B0EEF0A3EFF0C1
:10148B0053A1FC43A203438FC0759D509000B0E065
:10149B00FEA3E0FFE4FCFD7B407A42790F7800125B
:1014AB0002849000B2E0F8A3E0F9A3E0FAA3E0FB1A
:1014BB0012030F8F9E9000B0E0FEA3E0FFE4FCFD53
:1014CB007B407A42790F78001202849000B2E0F8E8
:1014DB00A3E0F9A3E0FAA3E0FB12030F78081203D1
:1014EB00BF8F9543A901D2AF7B017A00792CC00342
:1014FB00C002C0017B017A007937900097EBF0A313
:10150B00EAF0A3E9F0D001D002D0037D097C0012F0
:10151B000EF22278FFE4F6D8FD9000007F007E03E8
:10152B00E4F0A3DFFCDEFA75812A021573021EC0FC
:10153B00E493A3F8E493A34003F68001F208DFF4ED
:10154B008029E493A3F85407240CC8C333C4540F65
:10155B004420C8834004F456800146F6DFE4800B38
:10156B0001020408102040809013E3E47E01936095
:10157B00BCA3FF543F30E509541FFEE493A3600165
:10158B000ECF54C025E060A840B8E493A3FAE493CF
:10159B00A3F8E493A3C8C582C8CAC583CAF0A3C87D
:1015AB00C582C8CAC583CADFE9DEE780BE90000FDB
:1015BB00E0FFEF20E70302164590000FE0FFEF542A
:1015CB007FFF90000FEFF0120C869000181203E5CE
:1015DB00900018E0FCA3E0FDA3E0FEA3E0FFEF54B6
:1015EB0001FFEE5400FEED5400FDEC5400FCEC4DFD
:1015FB004E4F6004D2058019300516C20590001DB0
:10160B00E0FFEFB401047F0080027F0190001DEF2B
:10161B00F0121AE57B017A00791E120AF5121FB03F
:10162B007F01121F51EF60097B017A007925121C93
:10163B00C8300403121D8C12002E22C2AF75FEC1DE
:10164B00AFFFD2AFEF5430FD7C0070047918801CD3
:10165B00ED64104C7004790C8012ED64204C700416
:10166B0079068008ED64304C70027902E924FA6047
:10167B001724FA601F24F460272416702E90006143
:10168B00E4F0A37496F080259000617401F0A374CC
:10169B00C2F080199000617403F0A37484F0800D84
:1016AB009000617407F0A304F08002E4F9900061EC
:1016BB00E07002A3E0600C90006174FFF5F0120182
:1016CB005C80EA2275FE8543FF20D2AFC203E49013
:1016DB000090F090000FF0121A8CE4FF121C38EF00
:1016EB002401FDE433FC7E0B7FB81200D190008BFC
:1016FB00EEF0A3EFF0E4FF121FCD120A65121C38B7
:10170B00EFC454F0FEC006E4FF121C38D0E02FF5F6
:10171B00E17F03121C38E5E254804FF5E27F04129F
:10172B001C38EF6008E5E254804480F5E27F01123B
:10173B001C388FE3121E0543A910900004E044806F
:10174B00F5E812184D021F91900069EFF0121FE996
:10175B0090006AEFF01217C890008CE025E0FF9024
:10176B00008BE033FE7C00120A2E12095FE0FAA315
:10177B00E0C39FEA9E500990006AE0603F14802D01
:10178B001217C890008BE0FEA3E0FF7C007D0712D0
:10179B0000BF120A2E12097EE0FAA3E0D39FEA9E45
:1017AB00401A90006AE0FF647E6011EF04FF740C36
:1017BB002DF582E43400F583EFF0D203229000691B
:1017CB00E0FF121FCDEFFB22C209900090E012093F
:1017DB005CE5E5F0A3E5E4F0900090E004F0E0C3F5
:1017EB00952A400BE4F090000FE04480F08002D289
:1017FB00097F02121C38EFC454F0F5E1900090E021
:10180B00FF121FCD120A65121C38EFC454F0FEC034
:10181B0006E4FF121C38D0E02FF5E1900090E0FFBA
:10182B00121FE9E5E254804FF5E2900090E02404AA
:10183B00F582E43400F583E04480F5E8300902D208
:10184B00EE229020BAE49390005FF0121F0BE4900D
:10185B000060F0900060E0FFC3952A5021E0FE127B
:10186B00095CE0FCA3E0FD75F002EE1209C7ECF099
:10187B00A3EDF0121753900060E004F080D59000B8
:10188B005FE0FF14F0EF70C312200012204F9000A6
:10189B005FEFF0121F0BE4900060F0900060E0FF30
:1018AB00C3952A500B120FEC900060E004F080EB14
:1018BB0090005FE0FF14F0EF70D9229000A9EBF0DD
:1018CB00A3EAF0A3E9F09000ACECF0A3EDF09000EC
:1018DB00AFE4F09000AE7401F09000ACE0FEA3E03A
:1018EB00FFEF24FFFFEE34FFFE9000AEE0FD7C0027
:1018FB00C3ED9FEE6480F8EC64809850279000A9AC
:10190B00E0FBA3E0FAA3E0F99000AEE0FF8F827555
:10191B00830012005EFF9000AFE02FF09000AEE06E
:10192B0004F080B59000AFE0FFEFF404FFEF54FF3D
:10193B00FF229000F8EBF0A3EAF0A3E9F09000F897
:10194B00E0FBA3E0FAA3E0F97582047583001200B3
:10195B005EFFEF540FFFEF700775D600C204804394
:10196B009000F8E0FBA3E0FAA3E0F975820475831D
:10197B000012005EFFEF540FFFEFB4010775D66442
:10198B00C204801F9000F8E0FBA3E0FAA3E0F97516
:10199B00820475830012005EFFEF540FFFEFB40259
:1019AB0002D2047F00229000A2EBF0A3EAF0A3E99D
:1019BB00F09000A5ECF0A3EDF09000A8E4F09000FF
:1019CB00A77401F09000A5E0FEA3E0FFEF24FFFF5A
:1019DB00EE34FFFE9000A7E0FD7C00C3ED9FEE64AC
:1019EB0080F8EC64809850279000A2E0FBA3E0FA0B
:1019FB00A3E0F99000A7E0FF8F8275830012005ED1
:101A0B00FF9000A8E02FF09000A7E004F080B590C5
:101A1B0000A8E0FFEFF404FF229000EFEBF0A3EA45
:101A2B00F0A3E9F09000EFE0FBA3E0FAA3E0F97577
:101A3B0082047583001201B3FDACF09000EFE0FB64
:101A4B00A3E0FAA3E0F9120188FFAEF0EF2401FF47
:101A5B00EE3400FE1201269000EFE0FBA3E0FAA3A8
:101A6B00E0F97582027583001201B3FFAEF0EDB59C
:101A7B000709ECB506057E007F0122E47E007F009E
:101A8B0022902094E493FE740193FF900000EFF0FA
:101A9B009020AEE493FE740193FF900012EFF012CE
:101AAB001B90750E00E50EC3952A5025AF0EEF75F2
:101ABB00F008A424B4F582E43420F583E493FFAE5C
:101ACB000E740C2EF582E43400F583EFF0050E80D6
:101ADB00D4900010E4F0A3E4F02290002574AAF057
:101AEB009000267488F09000277407F0900028E08F
:101AFB00FFEF54FEFF90001CE0FEEF4EFF9000281E
:101B0B00EFF0900029E0FFEF54FEFF90001DE0FE88
:101B1B00EF4EFF900029EFF07B017A0079259000C2
:101B2B0027E0FFEFFD7C001219B190002BEFF022A4
:101B3B00C0E0C0F0C083C082C0D075D000C000C070
:101B4B0001C002C003C004C005C006C007E59D303C
:101B5B00E105539DFDD206E59D30E00E539DFE7BC6
:101B6B00017A00792CAD9F1211BBD007D006D0059E
:101B7B00D004D003D002D001D000D0D0D082D083FB
:101B8B00D0F0D0E032750800750900750D01750CA9
:101B9B0000750B00750A00750800E508C3941F500B
:101BAB0034AF0DAE0CAD0BAC0A78011203BF8F0D29
:101BBB008E0C8D0B8C0A30D718AF0974042FF5825D
:101BCB00E43400F583E508F00509E509C3940150F9
:101BDB0004050880C585092A222094FD90004A122D
:101BEB0003F1000000007FE87E037D007C00900085
:101BFB004AE0F8A3E0F9A3E0FAA3E0FBD31203AEAB
:101C0B00502280E27FE87E037D007C0090004AE05A
:101C1B00F8A3E0F9A3E0FAA3E0FBC31203AE70C68E
:101C2B00800280C22094037F01227F002290010852
:101C3B00EFF0900108E0FFEF1204B71C59001C6095
:101C4B00011C67021C6E031C740400001C7F902097
:101C5B00B0E493FF229020B1E493FF229020B2E4F2
:101C6B0093FF227F00121FE9229020A2E493FE74BF
:101C7B000193FF227F00229000F2EBF0A3EAF0A386
:101C8B00E9F09000F2E0FBA3E0FAA3E0F975820221
:101C9B007583001201B3FFAEF09000F2E0FBA3E0FE
:101CAB00FAA3E0F9120188FDACF0EDB50709ECB52C
:101CBB0006057E007F0122E47E007F00229000D784
:101CCB00EBF0A3EAF0A3E9F09000DAE4F09000DA8D
:101CDB00E0FFEFC3940750289000D7E0FBA3E0FA96
:101CEB00A3E0F99000DAE0FF8F8275830012005EAB
:101CFB00FF8F9F3006FDC2069000DAE004F080CD26
:101D0B0022900105EFF0900105E0FFEF75F008A4BC
:101D1B0024B6F582E43420F583E493FF7E00EF7F55
:101D2B0000FE900105E0FDED75F008A424B7F582E7
:101D3B00E43420F583E493FD7C00EF2DFFEE3CFEB5
:101D4B00229000E9EFF09000E9E0FF121D0C9000EB
:101D5B00EAEEF0A3EFF09000EAE0FEA3E0FFEF78ED
:101D6B0003C333CE33CED8F9FF7C007D0A1200D1EA
:101D7B009000EAEEF0A3EFF09000EAE0FEA3E0FFA4
:101D8B00227F01121F71EF6035200818900109E0C6
:101D9B00FF8FD6900109E014F0900109E0FFEF707E
:101DAB001DD20822900109E0FF8FD6900109E004B3
:101DBB00F0900109E0FFEFD394644002C20822C007
:101DCB00E0C0F0C083C082C0D075D000C000C0019D
:101DDB00C002C003C004C005C006C0071217D3D091
:101DEB0007D006D005D004D003D002D001D000D04C
:101DFB00D0D082D083D0F0D0E032E4FFEFC3952A6D
:101E0B00501A1209B4E4F0740B2F120965E4F0A315
:101E1B00F074082F120A0CE4F00F80E0E4F525F5BE
:101E2B0024F523F52290008A74FFF0E490008DF0E6
:101E3B00A3F0C20322E4900091F090005FF09000B9
:101E4B005FE0FFC3952A5013120FEC90005FE0FF89
:101E5B0012051F90005FE004F080E3AF25AE24ADC8
:101E6B0023AC222275D10075D23F75D40075D36493
:101E7B0075D50075D60075D72875DC0075DD007536
:101E8B00DE0075DF1443D28043A902D2AF22758ED8
:101E9B0007438901758A20758CD1C28CD2A9D28C4B
:101EAB0075C90075C80075CBD175CA20C2CAD2AD31
:101EBB00D2CAD2AF22121EE6120006121E6F1220D9
:101ECB00811216CF9000B21203F1000025807F0C17
:101EDB007E001214831215B880FB22759AFF759B36
:101EEB00007591FF75920075A1FF75A20075D9FF62
:101EFB0075DA00439ADC4391C043A18C43D903228A
:101F0B00E4FE90000FE0547FF0D2EE90000FE0540F
:101F1B0080701112164643CF100EEEC3946474807A
:101F2B00948040E722C0E0C083C082B28120960635
:101F3B009001007410F02097069001007420F0D0EF
:101F4B0082D083D0E032900103EFF090004FE0FF9E
:101F5B00EF6010900103E0FFEF600590004FE4F09D
:101F6B007F01227F0022900104EFF090004EE0FFF2
:101F7B00EF6010900104E0FFEF600590004EE4F07D
:101F8B007F01227F0022E4FFEFC3952A501612092E
:101F9B005BE0FCA3E0FD90000112097DECF0A3EDEA
:101FAB00F00F80E42212207890001CEFF090001CC0
:101FBB00E0FFEF600790001C7401F02290001CE41E
:101FCB00F022900106EFF0900106E0FFEF75F008AC
:101FDB00A424B3F582E43420F583E493FF2290012B
:101FEB0007EFF0900107E0FF740C2FF582E434004B
:101FFB00F583E0FF22E4FFEFC3952A500912095B3A
:10200B00120A500F80F122309904C299D2003098F5
:10201B0004C298D20132C0E0E5CE20E602B2A0D0D5
:10202B00E032900000E0FFEF75F00384FF22902078
:10203B0098E493FE740193FF2290209CE493FE742A
:10204B000193FF22902096E493FE740193FF22905C
:10205B002090E493FE740193FF22900000E0FFEFC9
:10206B00C313FF225391EF439202D2912230940378
:10207B007F01227F002212206F121BE42253ADDF5F
:10208B00D207320000000000000005000A0BB80068
:10209B00C80064000200000000000400000001FF03
:1020AB00FFFFFF0014023204083B0502590A0A2005
:00000001FF
